:020000040800F2
:10000000000003207D4500087F1F0008851F0008B1
:100010008B1F0008911F0008971F000800000000B8
:10002000000000000000000000000000210D00089A
:100030009D1F000800000000DD0C00080D0C0008EA
:10004000CD450008CD450008CD450008CD45000848
:10005000CD450008CD450008CD450008CD45000838
:10006000CD450008CD450008CD450008CD45000828
:10007000CD450008CD450008CD450008CD45000818
:10008000CD450008CD450008CD450008CD45000808
:10009000CD450008CD450008CD450008CD450008F8
:1000A000CD450008CD450008CD450008CD450008E8
:1000B000CD450008CD450008CD450008CD450008D8
:1000C000CD450008CD450008CD450008CD450008C8
:1000D000CD450008CD450008CD450008CD450008B8
:1000E000CD450008CD450008CD450008CD450008A8
:1000F000CD450008CD450008CD450008CD45000898
:10010000CD450008CD450008AD1F0008CD450008CD
:10011000CD450008CD450008CD450008CD45000877
:10012000CD450008CD450008C11F0008CD45000899
:10013000CD450008CD450008CD450008CD45000857
:10014000CD450008CD450008CD450008CD45000847
:10015000CD450008CD450008CD450008CD45000837
:10016000CD450008CD450008CD450008CD45000827
:10017000CD450008CD450008CD4500080000000031
:10018000CD450008CD450008CD450008CD45000807
:10019000CD450008CD450008CD450008CD450008F7
:0C01A000CD450008CD450008CD45000805
:1001AC0081F0004102E000BF83F0004330B54FEA1C
:1001BC0041044FEA430594EA050F08BF90EA020F89
:1001CC001FBF54EA000C55EA020C7FEA645C7FEA1C
:1001DC00655C00F0E2804FEA5454D4EB5555B8BF3F
:1001EC006D420CDD2C4480EA020281EA030382EAB0
:1001FC00000083EA010180EA020281EA0303362D42
:10020C0088BF30BD11F0004F4FEA01314FF4801C14
:10021C004CEA113102D0404261EB410113F0004F26
:10022C004FEA03334CEA133302D0524263EB4303DD
:10023C0094EA050F00F0A780A4F10104D5F1200E7B
:10024C000DDB02FA0EFC22FA05F2801841F10001D6
:10025C0003FA0EF2801843FA05F359410EE0A5F1AA
:10026C0020050EF1200E012A03FA0EFC28BF4CF0DB
:10027C00020C43FA05F3C01851EBE37101F0004591
:10028C0007D54FF0000EDCF1000C7EEB00006EEB9E
:10029C000101B1F5801F1BD3B1F5001F0CD3490828
:1002AC005FEA30004FEA3C0C04F101044FEA44527F
:1002BC0012F5800F80F09A80BCF1004F08BF5FEA06
:1002CC00500C50F1000041EB045141EA050130BDE6
:1002DC005FEA4C0C404141EB0101013C28BFB1F5F8
:1002EC00801FE9D291F0000F04BF01460020B1FA43
:1002FC0081F308BF2033A3F10B03B3F120020CDA16
:10030C000C3208DD02F1140CC2F10C0201FA0CF0F3
:10031C0021FA02F10CE002F11402D8BFC2F1200C58
:10032C0001FA02F120FA0CFCDCBF41EA0C0190400E
:10033C00E41AA2BF01EB0451294330BD6FEA040457
:10034C001F3C1CDA0C340EDC04F11404C4F1200242
:10035C0020FA04F001FA02F340EA030021FA04F354
:10036C0045EA030130BDC4F10C04C4F1200220FAAB
:10037C0002F001FA04F340EA0300294630BD21FAE9
:10038C0004F0294630BD94F0000F83F4801306BFAF
:10039C0081F480110134013D4EE77FEA645C18BFA3
:1003AC007FEA655C29D094EA050F08BF90EA020F3A
:1003BC0005D054EA000C04BF1946104630BD91EA32
:1003CC00030F1EBF0021002030BD5FEA545C05D135
:1003DC004000494128BF41F0004130BD14F5800474
:1003EC003CBF01F5801130BD01F0004545F0FE41E8
:1003FC0041F470014FF0000030BD7FEA645C1ABF1D
:10040C00194610467FEA655C1CBF0B46024650EA53
:10041C00013406BF52EA033591EA030F41F400217F
:10042C0030BD00BF90F0000F04BF0021704730B505
:10043C004FF4806404F132044FF000054FF00001DA
:10044C0050E700BF90F0000F04BF0021704730B59B
:10045C004FF4806404F1320410F0004548BF404270
:10046C004FF000013EE700BF42004FEAE2014FEAC5
:10047C0031014FEA02701FBF12F07F4393F07F4FA0
:10048C0081F06051704732F07F4208BF704793F0A3
:10049C007F4F04BF41F40021704730B54FF46074B6
:1004AC0001F0004521F000411CE700BF50EA0102B9
:1004BC0008BF704730B54FF000050AE050EA010262
:1004CC0008BF704730B511F0004502D5404261EBD2
:1004DC0041014FF4806404F132045FEA915C3FF413
:1004EC00D8AE4FF003025FEADC0C18BF03325FEAB0
:1004FC00DC0C18BF033202EBDC02C2F1200300FA61
:10050C0003FC20FA02F001FA03FE40EA0E0021FA85
:10051C0002F11444BDE600BF4FF0FF3C06E000BF03
:10052C004FF0010C02E000BF4FF0010C4DF804CD70
:10053C004FEA410C7FEA6C5C4FEA430C18BF7FEA30
:10054C006C5C1BD001B050EA410C0CBF52EA430C5E
:10055C0091EA030F02BF90EA020F0020704710F1DE
:10056C00000F91EA030F58BF994208BF90422CBF6D
:10057C00D8176FEAE37040F0010070474FEA410C66
:10058C007FEA6C5C02D150EA013C07D14FEA430C84
:10059C007FEA6C5CD6D152EA033CD3D05DF8040BF5
:1005AC00704700BF8446104662468C461946634627
:1005BC0000E000BF01B5FFF7B7FF002848BF10F1FE
:1005CC00000F01BD4DF808EDFFF7F4FF0CBF012043
:1005DC0000205DF808FB00BF4DF808EDFFF7EAFFBF
:1005EC0034BF012000205DF808FB00BF4DF808ED7A
:1005FC00FFF7E0FF94BF012000205DF808FB00BF6F
:10060C004DF808EDFFF7CEFF94BF012000205DF8F8
:10061C0008FB00BF4DF808EDFFF7C4FF34BF012005
:10062C0000205DF808FB00BF4A0011D212F5001241
:10063C0011D20DD56FF47873B3EB62520ED44FEA2E
:10064C00C12343F0004343EA505323FA02F07047AE
:10065C004FF00000704750EA013002D14FF0FF30EC
:10066C0070474FF00000704753B94AB9002908BFD2
:10067C0000281CBF4FF0FF314FF0FF3000F00CB8DA
:10068C00ADF1080C6DE904CE03F09CFFDDF804E03D
:10069C00DDE9022304B07047704700BF0348044BE8
:1006AC00834202D0034B03B118477047340000203B
:1006BC0034000020000000000548064B1B1AD90F1F
:1006CC0001EBA301491002D0034B03B1184770474B
:1006DC0034000020340000200000000010B5064C4F
:1006EC00237843B9FFF7DAFF044B13B10448AFF397
:1006FC0000800123237010BD380000200000000092
:10070C00F048000808B5054B1BB105490548AFF387
:10071C000080BDE80840FFF7CFBF00BF000000001D
:10072C003C000020F048000880B594B000AF07F101
:10073C00200330220021184604F0A8F807F10C031E
:10074C0000221A605A609A60DA601A610023BB605A
:10075C00284B1B6C274A43F080531364254B1B6CAE
:10076C0003F08053BB60BB6800237B60224B1B688B
:10077C0023F44043204A43F4804313601E4B1B6810
:10078C0003F440437B607B6802233B620123FB62E2
:10079C0010233B630023BB6307F12003184602F0D0
:1007AC000BFA0346002B14BF01230023DBB2002BF2
:1007BC0001D001F0D9FB0F23FB6000233B61002328
:1007CC007B610023BB610023FB6107F10C0300215B
:1007DC00184602F069FC0346002B14BF01230023CA
:1007EC00DBB2002B01D001F0BFFB00BF5037BD4680
:1007FC0080BD00BF003802400070004080B485B05E
:10080C0000AF78600023FB600023BB6005E0BB6891
:10081C000133BB60FB680133FB60BA687B689A42AA
:10082C00F5DB00BF00BF1437BD465DF8047B704795
:10083C0080B500AF02F058FFFFF776FF124B1B6B31
:10084C00114A43F040031363104B1B680F4A43F0EB
:10085C00806313600D4B1B680C4A23F0006313601C
:10086C000A4B5B68094A23F400535360074B9B689F
:10087C00064A43F040639360044BDB68034A23F061
:10088C004063D36000BF80BD0038024000180240B6
:10089C0080B582B000AF78603960094B9B69084A1B
:1008AC0043F4005393610748FFF7A8FF044B9B697F
:1008BC00034A43F0005393610348FFF79FFFECE7B3
:1008CC000018024040420F0020A10700B0B582B0D2
:1008DC0000AF2D4B9B691846FFF7B4FD2B4BD3E9AA
:1008EC000623FFF779FE0346002B07D0264B9B69A6
:1008FC00002B03DB254BD3E9022303E04FF000026E
:10090C004FF00003C7E900231F4B9B691846FFF704
:10091C0099FD04460D461D4BD3E904014FF000022E
:10092C001B4BFFF741FC02460B4620462946FFF7BE
:10093C0067FE0346002B03D0134B00229A6104E0A0
:10094C00114B9B690133104A93610F4BD3E904019E
:10095C000E4BD3E90023FFF735FE0346002B05D1E0
:10096C000A4BD3E900230849C1E90423D7E9000164
:10097C00FFF75AFE034601211846FFF789FF00BF17
:10098C000837BD46B0BD00BF580000200000002055
:10099C000000F03F80B500AF094B00221A70094BE4
:1009AC00D3E900230649C1E90423054B01225A600F
:1009BC00FFF73EFF024B01221A7200BF80BD00BF41
:1009CC00580000200000002080B400AF054B1B78BD
:1009DC00002B02D1034B01221A7000BFBD465DF8FB
:1009EC00047B70475800002080B500AF0F4B1B787C
:1009FC005A1CD1B20D4A1170002B09D00C4B01229C
:100A0C001A600A4B1B78013BDAB2084B1A700BE0E8
:100A1C0062B600BFFFF75AFF72B600BF034B1B78DC
:100A2C00013BDAB2014B1A7080BD00BF8000002080
:100A3C007C00002080B584B000AF786039602E4B0C
:100A4C00FB602E4BBB602E4B00221A702D4B0022EC
:100A5C001A7001DF02F048FE00F046FE00F058F874
:100A6C0001F020F801F006F800F08CFE00F0FCFE1E
:100A7C0000F04EFF00F07EFF234B1B6800221A6033
:100A8C00FFF788FF72B600BF97ED030A00F0C8F8B5
:100A9C001D4B1B681B68002B0CBF01230023DBB212
:100AAC001A46184B1A7062B600BF62B600BF15E04A
:100ABC00154B1B681B68002B14BF01230023DBB2F2
:100ACC001A460F4B1A700E4B1B78DBB2002B05D05D
:100ADC000E4B1B680D4A23F001031360094B1B7866
:100AEC00DBB2002BE4D1FFF76FFF72B600BF00231F
:100AFC0018461037BD4680BDCDCC4C3E0000284377
:100B0C0081000020820000200849000810E000E06D
:100B1C0080B400AF00BFBD465DF8047B704700BFDA
:100B2C0080B483B000AF03463960FB7197F907308E
:100B3C00002B0ADB3B68DAB20C4997F9073012013B
:100B4C00D2B20B4483F800230AE03B68DAB20849BE
:100B5C00FB7903F00F03043B1201D2B20B441A765B
:100B6C0000BF0C37BD465DF8047B704700E100E028
:100B7C0000ED00E080B582B000AF78607B68013B8F
:100B8C00B3F1807F01D301230FE00A4A7B68013B5C
:100B9C0053600F214FF0FF30FFF7C2FF054B0022CF
:100BAC009A60044B07221A60002318460837BD468A
:100BBC0080BD00BF10E000E080B500AFBFF34F8FE9
:100BCC0000BFBFF36F8F00BF0B4B1A680B4B1B683A
:100BDC009A4202D3084B00221A60074B1B685A1C1E
:100BEC0005490A60002B05D172B600BFFFF7FCFE69
:100BFC0062B600BF00BF80BD8400002088000020CA
:100C0C0080B400AF054B5B68044A43F080535360DB
:100C1C0000BFBD465DF8047B704700BF00ED00E0EF
:100C2C0080B584B000AF87ED010A234B1B6807EE3B
:100C3C00903AB8EE677AD7ED017A67EE277AFCEE38
:100C4C00E77A17EE903AFB60FB68B3F1807F18D31C
:100C5C00FB6807EE903AB8EE677ADFED186AC7EEDC
:100C6C00267AFCEEE77A17EE903A0133144A1360B9
:100C7C00134B1B68FA68B2FBF3F31846FFF77AFFC5
:100C8C0005E00F4B00221A60F868FFF773FF0D4B5D
:100C9C0000221A600C4A0D4B1A600F216FF00400F1
:100CAC00FFF73EFF0F216FF00100FFF739FF00BF88
:100CBC001037BD4680BD00BF30000020FFFF7F4BCA
:100CCC008800002084000020C50B00088C00002048
:100CDC00EFF3008001B5EFF3118003B41EF0100F99
:100CEC0008BFB0EE400A0A48006803B488B004A0FC
:100CFC0006904FF0807007906FF0060086467047A4
:100D0C0003BC8047BFF36F8F00DFFEE700BF00001E
:100D1C008C0000201EF0100F08BFB0EE400A1EF031
:100D2C00040F0CBFEFF30880EFF30980816911F811
:100D3C00020C10B101280DD00BE01EF0100F0CBFEF
:100D4C001AB008B003BC80F3118803BC80F3008890
:100D5C000847FEE74EF61451CEF200010A6842F045
:100D6C0001020A607047F4E700BF00BF80B400AF17
:100D7C00044BDB681B0A03F007031846BD465DF8FD
:100D8C00047B704700ED00E080B483B000AF0346F5
:100D9C00FB7197F90730002B0BDBFB7903F01F027B
:100DAC00074997F907305B09012000FA02F241F874
:100DBC00232000BF0C37BD465DF8047B704700BF95
:100DCC0000E100E080B483B000AF03463960FB71F2
:100DDC0097F90730002B0ADB3B68DAB20C4997F91C
:100DEC0007301201D2B20B4483F800230AE03B68AF
:100DFC00DAB20849FB7903F00F03043B1201D2B2BB
:100E0C000B441A7600BF0C37BD465DF8047B704767
:100E1C0000E100E000ED00E080B489B000AFF860C4
:100E2C00B9607A60FB6803F00703FB61FB69C3F1EF
:100E3C000703042B28BF0423BB61FB690433062B77
:100E4C0002D9FB69033B00E000237B614FF0FF32CA
:100E5C00BB6902FA03F3DA43BB681A407B699A4018
:100E6C004FF0FF317B6901FA03F3D9437B680B40E8
:100E7C00134318462437BD465DF8047B70470000C9
:100E8C0080B485B000AFF860B9607A600D4ABB6879
:100E9C0013441B781A46FB6813441B6823F0C002EA
:100EAC000849BB680B441B781946FB680B44194670
:100EBC007B6813430B6000BF1437BD465DF8047BA1
:100ECC00704700BF0C49000880B485B000AFF860D3
:100EDC00B9607A600D4ABB6813441B781A46FB68EC
:100EEC0013441B6823F490720849BB680B441B78AD
:100EFC001946FB680B4419467B6813430B6000BF13
:100F0C001437BD465DF8047B704700BF0C490008E0
:100F1C0080B485B000AFF860B9607A600D4ABB68E8
:100F2C0013441B781A46FB6813441B6823F40072A5
:100F3C000849BB680B441B781946FB680B441946DF
:100F4C007B6813430B6000BF1437BD465DF8047B10
:100F5C00704700BF0C49000880B485B000AFF86042
:100F6C00B9607A600D4ABB6813441B781A46FB685B
:100F7C0013441B6823F480620849BB680B441B783C
:100F8C001946FB680B4419467B6813430B6000BF82
:100F9C001437BD465DF8047B704700BF0C49000850
:100FAC0080B485B000AFF860B9607A600D4ABB6858
:100FBC0013441B781A46FB6813441B6823F4C05275
:100FCC000849BB680B441B781946FB680B4419464F
:100FDC007B6813430B6000BF1437BD465DF8047B80
:100FEC00704700BF0C49000880B485B000AFF860B2
:100FFC00B9607A600D4ABB6813441B781A46FB68CB
:10100C0013441B6823F4C0420849BB680B441B788B
:10101C001946FB680B4419467B6813430B6000BFF1
:10102C001437BD465DF8047B704700BF0C490008BF
:10103C0080B485B000AFF860B9607A600D4ABB68C7
:10104C0013441B781A46FB6813441B6823F4403284
:10105C000849BB680B441B781946FB680B441946BE
:10106C007B6813430B6000BF1437BD465DF8047BEF
:10107C00704700BF0C49000880B485B000AFF86021
:10108C00B9607A600D4ABB6813441B781A46FB683A
:10109C0013441B6823F060620849BB680B441B783F
:1010AC001946FB680B4419467B6813430B6000BF61
:1010BC001437BD465DF8047B704700BF0C4900082F
:1010CC0080B483B000AF786039600C4A3B6813443D
:1010DC001B781A467B6813445B6908493A680A44D2
:1010EC00127811467A680A4423F00403536100BF56
:1010FC000C37BD465DF8047B704700BF0C490008F7
:10110C0080B483B000AF78607B681B6823F08002EA
:10111C007B681A6000BF0C37BD465DF8047B7047D6
:10112C0080B483B000AF78607B681B6823F040020A
:10113C007B681A6000BF0C37BD465DF8047B7047B6
:10114C0080B483B000AF786039607B68DB6823F0D3
:10115C00FE023B681A437B68DA6000BF0C37BD4661
:10116C005DF8047B704780B483B000AF78607B6817
:10117C00DB6823F001027B68DA6000BF0C37BD46E8
:10118C005DF8047B7047000080B400AF054B1B6812
:10119C00044A43F48033136000BFBD465DF8047B02
:1011AC00704700BF0038024080B400AF074B1B688B
:1011BC0003F40033B3F5003F0CBF01230023DBB273
:1011CC001846BD465DF8047B704700BF00380240EE
:1011DC0080B483B000AF7860064B9B6823F00302A9
:1011EC0004497B6813438B6000BF0C37BD465DF828
:1011FC00047B70470038024080B400AF044B9B68FE
:10120C0003F00C031846BD465DF8047B704700BF25
:10121C000038024080B483B000AF7860064B9B6806
:10122C0023F0F00204497B6813438B6000BF0C373A
:10123C00BD465DF8047B70470038024080B483B033
:10124C0000AF7860064B9B6823F4E05204497B683E
:10125C0013438B6000BF0C37BD465DF8047B7047B1
:10126C000038024080B483B000AF7860064B9B68B6
:10127C0023F4604204497B6813438B6000BF0C3736
:10128C00BD465DF8047B70470038024080B483B0E3
:10129C0000AF7860074BD3F88C3023F0807205498F
:1012AC007B681343C1F88C3000BF0C37BD465DF82A
:1012BC00047B70470038024080B400AF054B1B68BC
:1012CC00044A43F08073136000BFBD465DF8047B95
:1012DC00704700BF0038024080B400AF074B1B685A
:1012EC0003F00073B3F1007F0CBF01230023DBB2CA
:1012FC001846BD465DF8047B704700BF00380240BD
:10130C0080B485B000AFF860B9607A603B600D4B7B
:10131C005A680D4B1340F968BA6811437A68920108
:10132C000A43084913434B60064B5B6823F4403275
:10133C0004493B6813434B6000BF1437BD465DF84E
:10134C00047B7047003802400080BFFF80B485B03A
:10135C0000AF7860084B1A6B07497B6813430B632B
:10136C00054B1A6B7B681340FB60FB6800BF14379E
:10137C00BD465DF8047B70470038024080B485B0F0
:10138C0000AF7860084B1A6C07497B6813430B64F9
:10139C00054B1A6C7B681340FB60FB6800BF14376D
:1013AC00BD465DF8047B70470038024080B485B0C0
:1013BC0000AF7860084B5A6C07497B6813434B6449
:1013CC00054B5A6C7B681340FB60FB6800BF1437FD
:1013DC00BD465DF8047B70470038024080B487B08E
:1013EC0000AF78603960174A3B68DBB2023352F8C1
:1013FC0023203B681B0CDB4302EA03013B681B0CFC
:10140C003B613B6993FAA3F3FB60FB687B617B69EF
:10141C00002B01D1202303E07B69B3FA83F3DBB209
:10142C001A467B6803FA02F206483B68DBB20A43B1
:10143C00023340F8232000BF1C37BD465DF8047B07
:10144C00704700BF0038014080B483B000AF7860B3
:10145C00064B1B6823F00F0204497B6813430B6097
:10146C0000BF0C37BD465DF8047B7047003C024062
:10147C0080B400AF044B1B6803F00F031846BD4645
:10148C005DF8047B704700BF003C024080B400AFA5
:10149C00054B1B68044A23F48033136000BFBD4620
:1014AC005DF8047B704700BF0070004080B483B0CF
:1014BC0000AF7860064B1B6823F4404204497B68FC
:1014CC0013430B6000BF0C37BD465DF8047B7047BF
:1014DC000070004080B483B000AF786039607B68E6
:1014EC005B6823F010023B681A437B685A6000BFAC
:1014FC000C37BD465DF8047B704780B483B000AFF9
:10150C0078607B681B6823F080027B681A6000BFE0
:10151C000C37BD465DF8047B704780B483B000AFD8
:10152C00786039607B689B6823F4804323F0070361
:10153C003A681A437B689A6000BF0C37BD465DF869
:10154C00047B704780B483B000AF786039607B68EF
:10155C005B6823F070023B681A437B685A6000BFDB
:10156C000C37BD465DF8047B704780B483B000AF88
:10157C0078607B689B6823F080027B689A6000BF70
:10158C000C37BD465DF8047B704780B483B000AF68
:10159C0078607B68DB6843F400527B68DA6000BFDC
:1015AC000C37BD465DF8047B704780B483B000AF48
:1015BC0078607B681B6923F490427B681A617B68B6
:1015CC005B6923F02A027B685A6100BF0C37BD4669
:1015DC005DF8047B704780B48BB000AFF860B960E5
:1015EC007A60FB681A68BB687B617B6993FAA3F32A
:1015FC003B613B69BB61BB69002B01D1202303E03C
:10160C00BB69B3FA83F3DBB25B00032101FA03F38A
:10161C00DB431A40BB683B623B6A93FAA3F3FB6162
:10162C00FB697B627B6A002B01D1202303E07B6A80
:10163C00B3FA83F3DBB25B00796801FA03F31A4364
:10164C00FB681A6000BF2C37BD465DF8047B704701
:10165C0080B48BB000AFF860B9607A60FB68DA6870
:10166C00BB687B617B6993FAA3F33B613B69BB610C
:10167C00BB69002B01D1202303E0BB69B3FA83F3D0
:10168C00DBB25B00032101FA03F3DB431A40BB68B6
:10169C003B623B6A93FAA3F3FB61FB697B627B6A57
:1016AC00002B01D1202303E07B6AB3FA83F3DBB276
:1016BC005B00796801FA03F31A43FB68DA6000BF38
:1016CC002C37BD465DF8047B704780B483B000AF07
:1016DC00786039603B681A047B689A6100BF0C37EC
:1016EC00BD465DF8047B704780B500AF0520FFF761
:1016FC00ABFE00BFFFF7BCFE0346052BFAD14FF43F
:10170C004040FFF7D3FEFFF7C1FEFFF73DFD00BFE2
:10171C00FFF74AFD0346012BFAD10023A82204212E
:10172C004FF48000FFF7ECFDFFF7C6FD00BFFFF79D
:10173C00D3FD0346012BFAD10020FFF76BFD4FF4CC
:10174C00A050FFF77BFD4FF40040FFF78BFD02200C
:10175C00FFF73EFD00BFFFF74FFD0346082BFAD104
:10176C00074801F001F9002000F058FC0346002B5B
:10177C0001D000F0F9FB0020FFF788FD00BF80BD11
:10178C00007A030A80B58EB000AF07F1180320224F
:10179C000021184603F07AF83B4600221A605A6082
:1017AC009A60DA601A615A610420FFF7CFFD0120BC
:1017BC00FFF7CCFD4FF400733B6002237B600023EA
:1017CC00BB600123FB6001233B6104237B613B462F
:1017DC001946214800F0C7FD4FF480733B6002238B
:1017EC007B600023BB600123FB6001233B6104236E
:1017FC007B613B461946194800F0B5FD4FF40000DB
:10180C00FFF7BCFD1648FFF7AEFC1548FFF788FC48
:10181C001348FFF775FC0023BB61124BFB610023DF
:10182C003B6200237B620023BB620023FB624FF40C
:10183C0080633B634FF480437B6307F118031946C5
:10184C00074800F01DFF00210548FFF779FC00BF99
:10185C003837BD4680BD00BF000802400000024082
:10186C00005C0040A086010080B590B000AF07F18D
:10187C00180328220021184603F008F83B460022E2
:10188C001A605A609A60DA601A615A614FF48010DB
:10189C00FFF78CFD2020FFF759FD4FF460733B6080
:1018AC0002237B600023BB600023FB6000233B61B1
:1018BC0005237B613B461946134800F054FD002379
:1018CC00BB614FF48273FB6100233B6200237B629C
:1018DC000023BB624FF40073FB6218233B630023AD
:1018EC007B630023BB630A23FB6307F118031946D0
:1018FC00064801F05EFF00210448FFF7EBFD00BF36
:10190C004037BD4680BD00BF00140240005001406E
:10191C0080B586B000AF3B1D00221A605A609A60F9
:10192C00DA601A610120FFF741FD0023BB80002320
:10193C00BB604FF6FF73FB6000233B6100237B61B0
:10194C003B1D19460A4802F06DFA0948FFF7D5FD10
:10195C0000210748FFF7E1FD00210548FFF7F2FDE4
:10196C000348FFF702FE00BF1837BD4680BD00BF1D
:10197C000000014080B58EB000AF07F11C030022BF
:10198C001A605A609A60DA601A615A619A613B1D5A
:10199C0000221A605A609A60DA601A615A6110204B
:1019AC00FFF704FD0120FFF7D1FC4FF4C0637B600F
:1019BC000223BB600323FB6000233B6100237B619C
:1019CC000723BB613B1D1946274800F0CCFC4FF0A8
:1019DC00006202212548FFF74FFB00220221234819
:1019EC00FFF74EFA002202212048FFF721FB0022CC
:1019FC0002211E48FFF768FA002202211B48FFF75C
:101A0C0087FA4FF4806202211848FFF7A5FA0022EA
:101A1C0002211648FFF7C4FA002202211348FFF7EF
:101A2C00E3FA02211148FFF74BFB4FF4E133FB6162
:101A3C0000233B6200237B620023BB620C23FB620E
:101A4C0000233B6300237B6307F11C031946084802
:101A5C0002F0EAFC0648FFF7A8FD0548FFF795FDE4
:101A6C0000BF3837BD4680BD000002400064024014
:101A7C000010014080B500AF4FF48000FFF766FC0A
:101A8C00FFF774F90346002200211846FFF7C4F94A
:101A9C00034619463A20FFF795F93A20FFF774F9F7
:101AAC0000BF80BD80B588B000AF07F118030022DD
:101ABC001A605A603B4600221A605A609A60DA60DB
:101ACC001A615A610420FFF741FC2020FFF73EFC0D
:101ADC008020FFF73BFC0120FFF738FC0220FFF7CA
:101AEC0035FC4020FFF732FC1020FFF72FFC0820BC
:101AFC00FFF72CFC1621B848FFF7E7FD8021B7480B
:101B0C00FFF7E3FD4FF44051B548FFF7DEFD4FF40E
:101B1C00C041B448FFF7D9FD4FF63F033B600223A9
:101B2C007B600323BB600023FB6000233B610C2321
:101B3C007B613B461946AC4800F015FC4FF48063C2
:101B4C003B6002237B600023BB600023FB6000230F
:101B5C003B610E237B613B461946A34800F003FC16
:101B6C0001233B6002237B600323BB600023FB60EB
:101B7C0000233B610C237B613B461946964800F0E1
:101B8C00F2FB16233B6001237B600023BB60002328
:101B9C00FB6000233B613B4619468F4800F0E3FB9A
:101BAC0041F658033B6002237B600023BB6000239B
:101BBC00FB6000233B610E237B613B461946874843
:101BCC0000F0D1FB80233B6001237B600023BB60D2
:101BDC000023FB6000233B613B4619467F4800F025
:101BEC00C2FB03233B6002237B600023BB6000230A
:101BFC00FB6000233B6109237B613B4619467B4814
:101C0C0000F0B1FB04233B6000237B6000233B61AD
:101C1C003B461946754800F0A6FB48F233133B606F
:101C2C0002237B600323BB600023FB6000233B612A
:101C3C000C237B613B4619466A4800F094FB4FF637
:101C4C0083733B6002237B600323BB600023FB6038
:101C5C0000233B610C237B613B461946644800F032
:101C6C0082FB4FF470633B6002237B600023BB60FC
:101C7C000023FB6000233B610E237B613B4619462E
:101C8C005A4800F070FB4FF450433B6002237B60DA
:101C9C000023BB600023FB6000233B610C237B61B2
:101CAC003B461946514800F05EFB4FF400533B6035
:101CBC0000237B6000233B613B4619464B4800F0F8
:101CCC0052FB4CF203733B6002237B600323BB602B
:101CDC000023FB6000233B610C237B613B461946D0
:101CEC003F4800F040FB4FF400633B6000237B60F7
:101CFC0000233B613B461946394800F034FB4FF456
:101D0C0040533B6001237B600023BB600023FB60DE
:101D1C0000233B613B461946314800F024FB4FF44D
:101D2C000C633B6002237B600023BB600023FB60E1
:101D3C0000233B610E237B613B461946294800F08A
:101D4C0012FB4FF498633B6002237B600023BB6063
:101D5C000023FB6000233B610E237B613B4619464D
:101D6C001D4800F000FB48233B6002237B600023EE
:101D7C00BB600023FB6000233B610E237B613B4671
:101D8C001946174800F0EFFA4FF4A0533B600223BA
:101D9C007B600023BB600023FB6000233B610923B5
:101DAC007B613B4619460F4800F0DDFA4FF4C04307
:101DBC003B6001237B600023BB600023FB6000239E
:101DCC003B613B461946074800F0CDFA60233B6067
:101DDC0002237B6003230DE0000802400000024058
:101DEC00000C0240001802400014024000040240A3
:101DFC0000100240BB600023FB6000233B610C23FE
:101E0C007B613B4619464A4800F0ADFA4FF470210D
:101E1C000020FFF7E3FA4FF470010020FFF7DEFA21
:101E2C004FF070610020FFF7D9FA42490220FFF70A
:101E3C00D5FA41490020FFF7D1FA0123BB610123F8
:101E4C003B7701237B770123BB7707F118031846F7
:101E5C0000F032FE0223BB6101233B7701237B7729
:101E6C000123BB7707F11803184600F025FE042365
:101E7C00BB6101233B7701237B770123BB7707F100
:101E8C001803184600F018FE2023BB6101233B7792
:101E9C0001237B770123BB7707F11803184600F069
:101EAC000BFE4FF40043BB6101233B7701237B778F
:101EBC000123BB7707F11803184600F0FDFD002243
:101ECC0001211E48FFF7C4FB002202211B48FFF72B
:101EDC00BFFB002204211948FFF7BAFB0022202186
:101EEC001748FFF7B5FB00224FF400411348FFF7EA
:101EFC00AFFB002201211148FFF76DFB00220221EC
:101F0C000E48FFF768FB002204210C48FFF763FB27
:101F1C00002220210A48FFF75EFB00224FF400410B
:101F2C000648FFF758FB00BF2037BD4680BD00BFF9
:101F3C00000402400100F000030000F00000024029
:101F4C000008024080B582B000AF78607B681B68E7
:101F5C00044A934201D101F0E9FB00BF0837BD46AA
:101F6C0080BD00BF000C004080B400AF72B600BF53
:101F7C00FEE780B400AFFEE780B400AFFEE780B4AC
:101F8C0000AFFEE780B400AFFEE780B400AFFEE721
:101F9C0080B400AF00BFBD465DF8047B7047000005
:101FAC0080B500AF024801F01FFD00BF80BD00BF2F
:101FBC009000002080B400AF00BFBD465DF8047BEC
:101FCC007047000080B582B000AF00237B60124BDD
:101FDC005B6C114A43F4804353640F4B5B6C03F40A
:101FEC0080437B607B6800233B600B4B1B6C0A4A75
:101FFC0043F080531364084B1B6C03F080533B601D
:10200C003B6800220F216FF0010001F043FB00BF81
:10201C000837BD4680BD00BF0038024080B58CB08B
:10202C0000AF78600023FB620023BB62002279685A
:10203C00322001F02FFB322001F048FB0023FB6023
:10204C001F4B1B6C1E4A43F0080313641C4B1B6C88
:10205C0003F00803FB60FB6807F1100207F114039F
:10206C001146184601F02CFA01F016FA03465B00F3
:10207C00FB62FB6A134AA2FB03239B0C013BBB6272
:10208C00114B124A1A60104B40F2E732DA600E4ADA
:10209C00BB6A53600C4B00221A610B4B00229A60F6
:1020AC00094801F0D8FB0346002B04D1064801F087
:1020BC002BFC034600E0012318463037BD4680BD9B
:1020CC000038024083DE1B4390000020000C0040CF
:1020DC0080B48BB000AFF860B9607A60FB681A68A6
:1020EC00BB687B617B6993FAA3F33B613B69BB6182
:1020FC00BB69002B01D1202303E0BB69B3FA83F346
:10210C00DBB25B00032101FA03F3DB431A40BB682B
:10211C003B623B6A93FAA3F3FB61FB697B627B6ACC
:10212C00002B01D1202303E07B6AB3FA83F3DBB2EB
:10213C005B00796801FA03F31A43FB681A6000BF6D
:10214C002C37BD465DF8047B704780B485B000AF7A
:10215C00F860B9607A60FB685A68BB68DB431A4068
:10216C00BB68796801FB03F31A43FB685A6000BF34
:10217C001437BD465DF8047B704780B48BB000AF5C
:10218C00F860B9607A60FB689A68BB687B617B69B0
:10219C0093FAA3F33B613B69BB61BB69002B01D193
:1021AC00202303E0BB69B3FA83F3DBB25B000321AA
:1021BC0001FA03F3DB431A40BB683B623B6A93FAB8
:1021CC00A3F3FB61FB697B627B6A002B01D12023AB
:1021DC0003E07B6AB3FA83F3DBB25B00796801FA44
:1021EC0003F31A43FB689A6000BF2C37BD465DF8B9
:1021FC00047B704780B48BB000AFF860B9607A6034
:10220C00FB68DA68BB687B617B6993FAA3F33B617B
:10221C003B69BB61BB69002B01D1202303E0BB6987
:10222C00B3FA83F3DBB25B00032101FA03F3DB4364
:10223C001A40BB683B623B6A93FAA3F3FB61FB69F0
:10224C007B627B6A002B01D1202303E07B6AB3FA0B
:10225C0083F3DBB25B00796801FA03F31A43FB6882
:10226C00DA6000BF2C37BD465DF8047B704780B444
:10227C008BB000AFF860B9607A60FB681A6ABB6813
:10228C007B617B6993FAA3F33B613B69BB61BB69DF
:10229C00002B01D1202303E0BB69B3FA83F3DBB23B
:1022AC009B000F2101FA03F3DB431A40BB683B622E
:1022BC003B6A93FAA3F3FB61FB697B627B6A002B9D
:1022CC0001D1202303E07B6AB3FA83F3DBB29B00DA
:1022DC00796801FA03F31A43FB681A6200BF2C37C2
:1022EC00BD465DF8047B704780B48BB000AFF860DE
:1022FC00B9607A60FB685A6ABB681B0A7B617B69B0
:10230C0093FAA3F33B613B69BB61BB69002B01D121
:10231C00202303E0BB69B3FA83F3DBB29B000F21EC
:10232C0001FA03F3DB431A40BB681B0A3B623B6AAE
:10233C0093FAA3F3FB61FB697B627B6A002B01D1EF
:10234C00202303E07B6AB3FA83F3DBB29B0079684A
:10235C0001FA03F31A43FB685A6200BF2C37BD46DF
:10236C005DF8047B704780B58AB000AF7860396047
:10237C0000237B6200233B623B681B68BB61BB692B
:10238C0093FAA3F37B617B69FB61FB69002B01D1A1
:10239C00202303E0FB69B3FA83F3DBB27B6257E0E3
:1023AC003B681A6801217B6A01FA03F313403B6214
:1023BC003B6A002B49D03B685B68012B03D03B6820
:1023CC005B68022B0DD13B689B681A46396A7868AA
:1023DC00FFF7D3FE3B68DB681A46396A7868FFF76B
:1023EC00B4FE3B681B691A46396A7868FFF702FF2E
:1023FC003B685B68022B21D13B6AFB60FB6893FA5C
:10240C00A3F3BB60BB683B613B69002B01D120236C
:10241C0003E03B69B3FA83F3DBB2072B07D83B68C5
:10242C005B691A46396A7868FFF721FF06E03B685A
:10243C005B691A46396A7868FFF756FF3B685B6838
:10244C001A46396A7868FFF743FE7B6A01337B6270
:10245C003B681A687B6A22FA03F3002BA0D1002395
:10246C0018462837BD4680BD80B483B000AF786075
:10247C007B681B6843F001027B681A6000BF0C3755
:10248C00BD465DF8047B704780B483B000AF7860C4
:10249C007B681B6823F001027B681A6000BF0C3755
:1024AC00BD465DF8047B704780B485B000AFF86022
:1024BC00B9607A60FB685B6A23F01F02B9687B68BD
:1024CC000B431A43FB685A6200BF1437BD465DF8D4
:1024DC00047B704780B485B000AFF860B9607A6057
:1024EC00FB689B6823F4034323F0FF03B9687A6805
:1024FC000A431A43FB689A6000BF1437BD465DF867
:10250C00047B704780B487B000AFF860B9607A6024
:10251C003B6000233B6100237B61BB68424AA2FB0A
:10252C0003239B0C3B61FB685B6823F03F023B6918
:10253C001A43FB685A60FB681B6A23F03F027B68F6
:10254C003A498B4202D83B69013309E03B694FF4AD
:10255C00967101FB03F33649A1FB03139B0901336D
:10256C001A43FB681A627B68304A934239D93B683C
:10257C00002B17D17A6813465B001344BA68B2FB80
:10258C00F3F3C3F30B03002B09D07A6813465B00FB
:10259C001344BA68B2FBF3F343F400431DE048F272
:1025AC0001031AE07A6813469B0013449A00134403
:1025BC00BA68B2FBF3F3C3F30B03002B0BD07A68AE
:1025CC0013469B0013449A001344BA68B2FBF3F30E
:1025DC0043F4004301E048F201033A6813437B6182
:1025EC0011E07B685B00BA68B2FBF3F240F6FC7357
:1025FC001340002B05D07B685B00BA68B2FBF3F389
:10260C0000E004237B61FB68DB6923F44F4323F078
:10261C00FF037A691A43FB68DA6100BF1C37BD46B9
:10262C005DF8047B704700BF83DE1B43A08601006E
:10263C00D34D621080B483B000AF786039607B6892
:10264C001B6823F01A023B681A437B681A6000BFB0
:10265C000C37BD465DF8047B704780B483B000AF87
:10266C00786039607B681B6823F480623B681A438E
:10267C007B681A6000BF0C37BD465DF8047B704761
:10268C0080B586B000AF786039607868FFF7FCFEE3
:10269C0007F10803184600F09DF83B68D9683B68C1
:1026AC001B691A467868FFF7FFFE39693B685A6860
:1026BC003B689B687868FFF725FF3B6859693B6866
:1026CC00DB691A467868FFF705FF3B681B681946FB
:1026DC007868FFF7AFFF7868FFF7C6FE3B689B6929
:1026EC0019467868FFF7B9FF002318461837BD461E
:1026FC0080BD000080B400AF044B9B6803F00C035A
:10270C001846BD465DF8047B704700BF0038024098
:10271C0080B400AF044B9B6803F0F0031846BD4631
:10272C005DF8047B704700BF0038024080B400AFF6
:10273C00044B9B6803F4E0531846BD465DF8047BDC
:10274C00704700BF0038024080B400AF044B9B6858
:10275C0003F460431846BD465DF8047B704700BF28
:10276C000038024080B400AF044B5B6803F4800374
:10277C001846BD465DF8047B704700BF0038024028
:10278C0080B400AF044B5B689B09C3F30803184685
:10279C00BD465DF8047B70470038024080B400AF42
:1027AC00044B5B6803F440331846BD465DF8047B6C
:1027BC00704700BF0038024080B400AF044B5B6828
:1027CC0003F03F031846BD465DF8047B704700BF1D
:1027DC000038024080B582B000AF786000F020F87D
:1027EC0002467B681A607B681B68184600F040F84C
:1027FC0002467B685A607B685B68184600F04EF8AE
:10280C0002467B689A607B685B68184600F05AF851
:10281C0002467B68DA6000BF0837BD4680BD000009
:10282C0080B582B000AF00237B60FFF763FF0346E7
:10283C00082B0CD0082B0FD8002B02D0042B03D064
:10284C000AE0094B7B600AE0084B7B6007E008203C
:10285C0000F04CF8786002E0034B7B6000BF7B68B3
:10286C0018460837BD4680BD0024F40000127A00DB
:10287C0080B582B000AF7860FFF74AFF03461B09B2
:10288C0003F00F03044AD35C1A467B68D340184606
:10289C000837BD4680BD00BF1449000880B582B022
:1028AC0000AF7860FFF742FF03469B0A044AD35CF3
:1028BC001A467B68D34018460837BD4680BD00BF1A
:1028CC002449000880B582B000AF7860FFF73CFF68
:1028DC0003465B0B044AD35C1A467B68D34018460C
:1028EC000837BD4680BD00BF2449000890B587B0AD
:1028FC0000AF786000237B610023FB6000233B6109
:10290C00FFF730FFF860FB68002B04D0FB68B3F5D1
:10291C00800F03D005E0124B7B6105E0114B7B610E
:10292C0002E00F4B7B6100BF7B68082B13D1FFF7D4
:10293C0043FF02467B69B3FBF2F4FFF721FF03462A
:10294C0003FB04F4FFF72AFF03461B0C01335B0067
:10295C00B4FBF3F33B613B6918461C37BD4690BD95
:10296C000024F40000127A0080B483B000AF7860C9
:10297C00044A7B68136000BF0C37BD465DF8047BCE
:10298C00704700BF3000002080B483B000AF786087
:10299C00054B1A6804497B6813430B6000BF0C3766
:1029AC00BD465DF8047B7047003C014080B483B0A9
:1029BC0000AF7860064B1A687B68DB430449134010
:1029CC000B6000BF0C37BD465DF8047B704700BF41
:1029DC00003C014080B483B000AF7860054B5A686E
:1029EC0004497B6813434B6000BF0C37BD465DF850
:1029FC00047B7047003C014080B483B000AF78602A
:102A0C00064B5A687B68DB43044913404B6000BF9C
:102A1C000C37BD465DF8047B704700BF003C01409D
:102A2C0080B483B000AF7860054B9A6804497B682A
:102A3C0013438B6000BF0C37BD465DF8047B7047B9
:102A4C00003C014080B483B000AF7860064B9A68BC
:102A5C007B68DB43044913408B6000BF0C37BD46D9
:102A6C005DF8047B704700BF003C014080B483B02C
:102A7C0000AF7860054BDA6804497B681343CB6080
:102A8C0000BF0C37BD465DF8047B7047003C01402D
:102A9C0080B483B000AF7860064BDA687B68DB43A8
:102AAC0004491340CB6000BF0C37BD465DF8047B76
:102ABC00704700BF003C014080B584B000AF786027
:102ACC000023FB737B681B79002B65D07B681B682C
:102ADC00002B6BD07B685B79022B1CD0022B25DC86
:102AEC00002B02D0012B0BD020E07B681B68184612
:102AFC00FFF782FF7B681B681846FFF745FF18E05D
:102B0C007B681B681846FFF751FF7B681B681846EB
:102B1C00FFF760FF0DE07B681B681846FFF734FF7A
:102B2C007B681B681846FFF755FF02E00123FB7317
:102B3C0000BF7B689B79002B38D07B689B79032B7B
:102B4C001CD0032B25DC012B02D0022B0BD020E058
:102B5C007B681B681846FFF79BFF7B681B68184651
:102B6C00FFF75EFF22E07B681B681846FFF76AFFE1
:102B7C007B681B681846FFF779FF17E07B681B68BA
:102B8C001846FFF74DFF7B681B681846FFF76EFF72
:102B9C000CE00123FB7309E07B681B681846FFF708
:102BAC0005FF7B681B681846FFF726FFFB7B184662
:102BBC001037BD4680BD000080B586B000AF786090
:102BCC007B68002B01D1012367E27B681B6803F053
:102BDC000103002B75D0884B9B6803F00C03042B6E
:102BEC000CD0854B9B6803F00C03082B12D1824B45
:102BFC005B6803F48003B3F5800F0BD17E4B1B682D
:102C0C0003F40033002B5BD07B685B68002B57D13F
:102C1C00012342E27B685B68B3F5803F06D1764BBB
:102C2C001B68754A43F4803313601DE07B685B6856
:102C3C00B3F5A02F0CD1704B1B686F4A43F4802363
:102C4C0013606D4B1B686C4A43F4803313600BE0CC
:102C5C00694B1B68684A23F480331360664B1B680E
:102C6C00654A23F4802313607B685B68002B13D0C8
:102C7C0000F070FD386108E000F06CFD02463B6925
:102C8C00D31A642B01D9032307E25B4B1B6803F4B3
:102C9C000033002BF0D014E000F05CFD386108E04C
:102CAC0000F058FD02463B69D31A642B01D903236B
:102CBC00F3E1514B1B6803F40033002BF0D100E01F
:102CCC0000BF7B681B6803F00203002B63D04A4BE8
:102CDC009B6803F00C03002B0BD0474B9B6803F055
:102CEC000C03082B1CD1444B5B6803F48003002BB2
:102CFC0016D1414B1B6803F00203002B05D07B68F7
:102D0C00DB68012B01D00123C7E13B4B1B6823F08F
:102D1C00F8027B681B69DB00374913430B603AE010
:102D2C007B68DB68002B20D0344B01221A6000F04A
:102D3C0011FD386108E000F00DFD02463B69D31A25
:102D4C00022B01D90323A8E12B4B1B6803F00203D0
:102D5C00002BF0D0284B1B6823F0F8027B681B6912
:102D6C00DB00254913430B6015E0244B00221A604D
:102D7C0000F0F0FC386108E000F0ECFC02463B6926
:102D8C00D31A022B01D9032387E11B4B1B6803F0D9
:102D9C000203002BF0D17B681B6803F00803002BA7
:102DAC0036D07B685B69002B16D0154B01221A605C
:102DBC0000F0D0FC386108E000F0CCFC02463B6926
:102DCC00D31A022B01D9032367E10B4B5B6F03F082
:102DDC000203002BF0D01BE0094B00221A6000F01C
:102DEC00B9FC38610EE000F0B5FC02463B69D31A21
:102DFC00022B07D9032350E1003802400000474260
:102E0C00800E4742884B5B6F03F00203002BEAD124
:102E1C007B681B6803F00403002B00F097800023F1
:102E2C00FB75814B1B6C03F08053002B0FD10023DF
:102E3C00BB607D4B1B6C7C4A43F0805313647A4B14
:102E4C001B6C03F08053BB60BB680123FB75774B95
:102E5C001B6803F48073002B18D1744B1B68734AE6
:102E6C0043F48073136000F075FC386108E000F0E7
:102E7C0071FC02463B69D31A022B01D903230CE1E6
:102E8C006A4B1B6803F48073002BF0D07B689B6843
:102E9C00012B06D1644B1B6F634A43F0010313678C
:102EAC001CE07B689B68052B0CD15F4B1B6F5E4A4B
:102EBC0043F0040313675C4B1B6F5B4A43F0010345
:102ECC0013670BE0584B1B6F574A23F00103136732
:102EDC00554B1B6F544A23F0040313677B689B68A4
:102EEC00002B15D000F036FC38610AE000F032FC03
:102EFC0002463B69D31A41F28832934201D903232B
:102F0C00CBE0494B1B6F03F00203002BEED014E017
:102F1C0000F020FC38610AE000F01CFC02463B6922
:102F2C00D31A41F28832934201D90323B5E03E4BC8
:102F3C001B6F03F00203002BEED1FB7D012B05D19F
:102F4C00394B1B6C384A23F0805313647B689B69A4
:102F5C00002B00F0A180344B9B6803F00C03082B72
:102F6C005CD07B689B69022B41D1314B00221A60EB
:102F7C0000F0F0FB386108E000F0ECFB02463B6926
:102F8C00D31A022B01D9032387E0274B1B6803F0CC
:102F9C000073002BF0D17B68DA697B681B6A1A43DB
:102FAC007B685B6A9B011A437B689B6A5B08013BED
:102FBC001B041A437B68DB6A1B061B4913434B60DB
:102FCC001B4B01221A6000F0C5FB386108E000F0D1
:102FDC00C1FB02463B69D31A022B01D903235CE0E7
:102FEC00114B1B6803F00073002BF0D054E0104B16
:102FFC0000221A6000F0AEFB386108E000F0AAFB7A
:10300C0002463B69D31A022B01D9032345E0064B38
:10301C001B6803F00073002BF0D13DE07B689B69CB
:10302C00012B07D1012338E000380240007000402A
:10303C00600047421B4B5B68FB607B689B69012B04
:10304C0028D0FB6803F480027B68DB699A4221D1AB
:10305C00FB6803F03F027B681B6A9A421AD1FA683C
:10306C0047F6C07313407A68526A9201934211D1A9
:10307C00FB6803F440327B689B6A5B08013B1B04D2
:10308C009A4207D1FB6803F070627B68DB6A1B060F
:10309C009A4201D0012300E0002318461837BD46A0
:1030AC0080BD00BF0038024080B584B000AF7860AE
:1030BC0039607B68002B01D10123CCE0684B1B6885
:1030CC0003F00F033A689A420CD9654B3A68D2B2B6
:1030DC001A70634B1B6803F00F033A689A4201D0D5
:1030EC000123B8E07B681B6803F00203002B20D09F
:1030FC007B681B6803F00403002B05D0594B9B68BD
:10310C00584A43F4E05393607B681B6803F0080350
:10311C00002B05D0534B9B68524A43F46043936099
:10312C00504B9B6823F0F0027B689B684D4913431E
:10313C008B607B681B6803F00103002B44D07B6819
:10314C005B68012B07D1474B1B6803F40033002B42
:10315C0019D101237FE07B685B68022B03D07B686D
:10316C005B68032B07D13F4B1B6803F00073002BEC
:10317C0009D101236FE03B4B1B6803F00203002BCA
:10318C0001D1012367E0374B9B6823F003027B6876
:10319C005B68344913438B6000F0DCFAF8600AE09A
:1031AC0000F0D8FA0246FB68D31A41F288329342F7
:1031BC0001D903234FE02B4B9B6803F00C027B6877
:1031CC005B689B009A42EBD1254B1B6803F00F0305
:1031DC003A689A420CD2224B3A68D2B21A70204BFF
:1031EC001B6803F00F033A689A4201D0012332E0C6
:1031FC007B681B6803F00403002B08D0194B9B68F9
:10320C0023F4E0527B68DB68164913438B607B68C0
:10321C001B6803F00803002B09D0124B9B6823F4A6
:10322C0060427B681B69DB000E4913438B6000F026
:10323C0021F802460B4B9B681B0903F00F030A494C
:10324C00CB5C22FA03F3094A1360094B1B6818463E
:10325C00FEF7E4FE002318461037BD4680BD00BFC4
:10326C00003C0240003802401449000830000020A5
:10327C00280000202DE9B04F94B000AF00237B64F0
:10328C000023FB6400233B640023BB64794B9B68E5
:10329C0003F00C03082B0DD0082B00F2E180002B5F
:1032AC0002D0042B03D0DBE0734BBB64DBE0734B2D
:1032BC00BB64D8E06F4B5B6803F03F037B646D4BE2
:1032CC005B6803F48003002B63D06A4B5B689B093B
:1032DC000022BB63FA63BB6BC3F308033B6300239D
:1032EC007B63D7E90C4522462B464FF000004FF08C
:1032FC000001590141EAD261500102460B462146B8
:10330C00511A3961294663EB01037B614FF00002CE
:10331C004FF00003D7E904AB59468B01514643EA01
:10332C00916351468A015146B2EB0108594663EB51
:10333C0001094FF000024FF000034FEAC90343EAC2
:10334C0058734FEAC80290469946234618EB03037C
:10335C00BB602B4649EB0303FB604FF000024FF0C0
:10336C000003D7E9024529464B02214643EAD153D3
:10337C0021464A02104619467B6C0022BB62FA6257
:10338C00D7E90A23FDF770F902460B461346FB6496
:10339C0058E0384B5B689B09002218461146C0F375
:1033AC0008033B6200237B62D7E9088942464B46FF
:1033BC004FF000004FF00001590141EAD261500179
:1033CC0002460B464146B2EB010A494663EB010B40
:1033DC004FF000024FF000034FEA8B1343EA9A635D
:1033EC004FEA8A12B2EB0A0463EB0B054FF00002B2
:1033FC004FF00003EB0043EA5473E20014461D4601
:10340C004346E3183B604B4645EB03037B604FF0B0
:10341C0000024FF00003D7E9004529468B022146F4
:10342C0043EA915321468A02104619467B6C0022CE
:10343C00BB61FA61D7E90623FDF716F902460B4684
:10344C001346FB640B4B5B681B0C03F0030301334B
:10345C005B003B64FA6C3B6CB2FBF3F3BB6402E0C5
:10346C00054BBB6400BFBB6C18465037BD46BDE86E
:10347C00B08F00BF003802400024F40000127A0024
:10348C0080B400AF034B1B681846BD465DF8047B47
:10349C00704700BF3000002080B500AFFFF7F0FF91
:1034AC000246054B9B689B0A03F007030349CB5C60
:1034BC0022FA03F3184680BD003802402449000864
:1034CC0080B483B000AF786039607B680F221A60DB
:1034DC00124B9B6803F003027B685A600F4B9B688E
:1034EC0003F0F0027B689A600C4B9B6803F4E0528B
:1034FC007B68DA60094B9B68DB0803F4E0527B685D
:10350C001A61074B1B6803F00F023B681A6000BF7F
:10351C000C37BD465DF8047B704700BF0038024095
:10352C00003C024080B485B000AF78607B6803F04B
:10353C000703FB600C4BDB68BB60BA684FF6FF03FC
:10354C001340BB60FB681A02BB68134343F0BF63B4
:10355C0043F40033BB60044ABB68D36000BF14372C
:10356C00BD465DF8047B704700ED00E080B400AF11
:10357C00044BDB681B0A03F007031846BD465DF8D5
:10358C00047B704700ED00E080B483B000AF0346CD
:10359C00FB7197F90730002B0BDBFB7903F01F0253
:1035AC00074997F907305B09012000FA02F241F84C
:1035BC00232000BF0C37BD465DF8047B704700BF6D
:1035CC0000E100E080B483B000AF03463960FB71CA
:1035DC0097F90730002B0ADB3B68DAB20C4997F9F4
:1035EC0007301201D2B20B4483F800230AE03B6887
:1035FC00DAB20849FB7903F00F03043B1201D2B293
:10360C000B441A7600BF0C37BD465DF8047B70473F
:10361C0000E100E000ED00E080B489B000AFF8609C
:10362C00B9607A60FB6803F00703FB61FB69C3F1C7
:10363C000703042B28BF0423BB61FB690433062B4F
:10364C0002D9FB69033B00E000237B614FF0FF32A2
:10365C00BB6902FA03F3DA43BB681A407B699A40F0
:10366C004FF0FF317B6901FA03F3D9437B680B40C0
:10367C00134318462437BD465DF8047B704780B56C
:10368C0082B000AF78607868FFF74CFF00BF083756
:10369C00BD4680BD80B586B000AF0346B9607A6088
:1036AC00FB7300237B61FFF761FF78617A68B9686F
:1036BC007869FFF7B1FF024697F90F3011461846AB
:1036CC00FFF780FF00BF1837BD4680BD80B582B0C4
:1036DC0000AF0346FB7197F907301846FFF754FF0C
:1036EC0000BF0837BD4680BD80B500AF0E4B1B68D0
:1036FC000D4A43F4007313600B4B1B680A4A43F4E6
:10370C0080631360084B1B68074A43F48073136093
:10371C000320FFF7B4FF0020FEF780FCFEF752FCFD
:10372C000023184680BD00BF003C024080B400AFAF
:10373C00064B1B781A46064B1B681344044A13604D
:10374C0000BFBD465DF8047B704700BF2C00002015
:10375C00D800002080B400AF034B1B681846BD4650
:10376C005DF8047B704700BFD800002080B483B0A4
:10377C0000AF78607B681B6803F04003402B01D1DD
:10378C00012300E0002318460C37BD465DF8047B8E
:10379C00704780B483B000AF786039603B689BB2EF
:1037AC001A467B681A6100BF0C37BD465DF8047B76
:1037BC00704780B584B000AF786039600123FB732B
:1037CC007868FFF7D3FF0346002B39D17B681B6861
:1037DC0023F47F4323F0BF033A6811683A685268B8
:1037EC0011433A68926811433A68D26811433A68B7
:1037FC00126911433A68526911433A68926911434C
:10380C003A68D26911433A68126A0A431A437B68D0
:10381C001A607B685B6823F004023B685B691B0CD5
:10382C001A437B685A603B681B6AB3F5005F05D18D
:10383C003B685B6A19467868FFF7ABFF0023FB73A4
:10384C007B68DB6923F400627B68DA61FB7B1846DA
:10385C001037BD4680BD80B582B000AF78607B6804
:10386C00002B01D1012341E07B6893F83D30DBB2A2
:10387C00002B06D17B68002283F83C20786800F08E
:10388C0039F87B68022283F83D207B681A687B68D4
:10389C0004331946104600F0D7F97B68012283F8EF
:1038AC0046207B68012283F83E207B68012283F846
:1038BC003F207B68012283F840207B68012283F83B
:1038CC0041207B68012283F842207B68012283F827
:1038DC0043207B68012283F844207B68012283F813
:1038EC0045207B68012283F83D20002318460837C9
:1038FC00BD4680BD80B483B000AF786000BF0C378C
:10390C00BD465DF8047B704780B485B000AF78602D
:10391C007B6893F83D30DBB2012B01D001234EE0E4
:10392C007B68022283F83D207B681B68DA687B6821
:10393C001B6842F00102DA607B681B68234A9342E1
:10394C0022D07B681B68B3F1804F1DD07B681B684D
:10395C001F4A934218D07B681B681E4A934213D0AF
:10396C007B681B681C4A93420ED07B681B681B4A01
:10397C00934209D07B681B68194A934204D07B6838
:10398C001B68184A934211D17B681B689B6803F033
:10399C000703FB60FB68062B10D07B681B681A685A
:1039AC007B681B6842F001021A6007E07B681B68A9
:1039BC001A687B681B6842F001021A6000231846E3
:1039CC001437BD465DF8047B704700BF0000014012
:1039DC000004004000080040000C004000040140BE
:1039EC00004001400018004080B582B000AF786004
:1039FC007B681B681B6903F00203022B22D17B68D6
:103A0C001B68DB6803F00203022B1BD17B681B686D
:103A1C006FF002021A617B6801221A777B681B68BF
:103A2C009B6903F00303002B03D0786800F0EEF8D9
:103A3C0005E0786800F0E0F8786800F0F1F87B6851
:103A4C0000221A777B681B681B6903F00403042BA4
:103A5C0022D17B681B68DB6803F00403042B1BD1A9
:103A6C007B681B686FF004021A617B6802221A776C
:103A7C007B681B689B6903F44073002B03D0786848
:103A8C0000F0C4F805E0786800F0B6F8786800F04B
:103A9C00C7F87B6800221A777B681B681B6903F0E8
:103AAC000803082B22D17B681B68DB6803F0080332
:103ABC00082B1BD17B681B686FF008021A617B68AE
:103ACC0004221A777B681B68DB6903F00303002B65
:103ADC0003D0786800F09AF805E0786800F08CF86C
:103AEC00786800F09DF87B6800221A777B681B6869
:103AFC001B6903F01003102B22D17B681B68DB6859
:103B0C0003F01003102B1BD17B681B686FF01002A5
:103B1C001A617B6808221A777B681B68DB6903F4DF
:103B2C004073002B03D0786800F070F805E07868DB
:103B3C0000F062F8786800F073F87B6800221A775E
:103B4C007B681B681B6903F00103012B0ED17B689A
:103B5C001B68DB6803F00103012B07D17B681B6832
:103B6C006FF001021A617868FEF7ECF97B681B684C
:103B7C001B6903F08003802B0ED17B681B68DB680C
:103B8C0003F08003802B07D17B681B686FF08002E9
:103B9C001A61786800F002F97B681B681B6903F0F6
:103BAC004003402B0ED17B681B68DB6803F040039D
:103BBC00402B07D17B681B686FF040021A61786854
:103BCC0000F038F87B681B681B6903F02003202B7E
:103BDC000ED17B681B68DB6803F02003202B07D118
:103BEC007B681B686FF020021A61786800F0CCF8D3
:103BFC0000BF0837BD4680BD80B483B000AF78608D
:103C0C0000BF0C37BD465DF8047B704780B483B0B1
:103C1C0000AF786000BF0C37BD465DF8047B704781
:103C2C0080B483B000AF786000BF0C37BD465DF840
:103C3C00047B704780B483B000AF786000BF0C3752
:103C4C00BD465DF8047B704780B485B000AF7860EA
:103C5C0039607B681B68FB607B68404A934213D0D9
:103C6C007B68B3F1804F0FD07B683D4A93420BD0F9
:103C7C007B683C4A934207D07B683B4A934203D013
:103C8C007B683A4A934208D1FB6823F07003FB60CF
:103C9C003B685B68FA681343FB607B682F4A93426E
:103CAC002BD07B68B3F1804F27D07B682C4A934292
:103CBC0023D07B682B4A93421FD07B682A4A9342BD
:103CCC001BD07B68294A934217D07B68284A9342C1
:103CDC0013D07B68274A93420FD07B68264A9342C5
:103CEC000BD07B68254A934207D07B68244A9342C9
:103CFC0003D07B68234A934208D1FB6823F44073BA
:103D0C00FB603B68DB68FA681343FB60FB6823F0DD
:103D1C0080023B685B691343FB607B68FA681A603E
:103D2C003B689A687B68DA623B681A687B689A62BF
:103D3C007B680A4A934203D07B680C4A934203D1B6
:103D4C003B681A697B681A637B6801225A6100BF61
:103D5C001437BD465DF8047B704700BF000001407E
:103D6C000004004000080040000C0040000401402A
:103D7C000040014000440140004801400018004050
:103D8C00001C00400020004080B483B000AF78607D
:103D9C0000BF0C37BD465DF8047B704780B483B020
:103DAC0000AF786000BF0C37BD465DF8047B7047F0
:103DBC0080B483B000AF786039607B683A689A62EF
:103DCC0000BF0C37BD465DF8047B704780B483B0F0
:103DDC0000AF786039607B683A68DA6200BF0C37F4
:103DEC00BD465DF8047B704780B483B000AF78604B
:103DFC0039607B683A681A6300BF0C37BD465DF8C2
:103E0C00047B704780B483B000AF78607B685B69DB
:103E1C0043F001027B685A6100BF0C37BD465DF868
:103E2C00047B704780B584B000AF786039607B68E4
:103E3C001B68FB607B683D4A934213D07B68B3F1EF
:103E4C00804F0FD07B683A4A93420BD07B68394A3B
:103E5C00934207D07B68384A934203D07B68374A39
:103E6C00934206D1FB6823F070023B685B681343F6
:103E7C00FB607B682D4A93422BD07B68B3F1804F5B
:103E8C0027D07B682A4A934223D07B68294A9342E5
:103E9C001FD07B68284A93421BD07B68274A9342E9
:103EAC0017D07B68264A934213D07B68254A9342ED
:103EBC000FD07B68244A93420BD07B68234A9342F1
:103ECC0007D07B68224A934203D07B68214A9342F5
:103EDC0006D1FB6823F440723B68DB681343FB603C
:103EEC007B68FA681A603B689B6819467868FFF72C
:103EFC006DFF3B681B8819467868FFF759FF7B6894
:103F0C000A4A934203D07B680C4A934205D13B6822
:103F1C001B6919467868FFF767FF7868FFF772FF2F
:103F2C00002318461037BD4680BD00BF000001407D
:103F3C000004004000080040000C00400004014058
:103F4C00004001400044014000480140001800407E
:103F5C00001C00400020004080B483B000AF7860AB
:103F6C007B68DB6803F40053B3F5005F0CBF0123DF
:103F7C000023DBB218460C37BD465DF8047B704756
:103F8C0080B483B000AF786039607B681B6923F420
:103F9C0040523B681A437B681A6100BF0C37BD4620
:103FAC005DF8047B704780B483B000AF78603960F3
:103FBC007B685B6923F440723B681A437B685A61E7
:103FCC0000BF0C37BD465DF8047B70472DE9B04F40
:103FDC00C0B000AFC7F8FC00C7F8F810C7F8F42061
:103FEC00C7F8F030D7F8F430B3F5004F40F00C813F
:103FFC00D7F8F8300022C7F8E830C7F8EC20D7E93A
:10400C003A4522462B46911839665B417B66D7E9C7
:10401C001823214612EB0108294643EB01094FF006
:10402C0000024FF000034FEAC90343EA58734FEA0A
:10403C00C80290469946234618EB0303C7F8E030B4
:10404C002B4649EB0303C7F8E430D7F8F0300022D5
:10405C009A4693461AEB0A03BB654BEB0B03FB65C5
:10406C00D7E91623D7E93801FCF7FEFA02460B46CE
:10407C00644BA3FB02235B099BB21B019CB2D7F8D8
:10408C00F8300022C7F8D830C7F8DC20D7E93689D9
:10409C0042464B46911839655B417B65D7E9142341
:1040AC0041465118B96449464B41FB644FF000023C
:1040BC004FF00003D7E912AB5946CB00514643EA07
:1040CC0051735146CA0010461946034642469B1886
:1040DC00C7F8D0304B460A4642EB0303C7F8D4303E
:1040EC00D7F8F0300022C7F8C830C7F8CC20D7E991
:1040FC0032120B46DB183B64134642EB03037B6422
:10410C00D7E91023D7E93401FCF7AEFA02460B4687
:10411C0011463C4BA3FB01235B09642202FB03F316
:10412C00CB1ADB0003F13202364BA3FB02235B09F3
:10413C009BB25B009BB203F4F8739BB223449CB21A
:10414C00D7F8F8300022C7F8C030C7F8C420D7E938
:10415C00308942464B469118B9635B41FB63D7E902
:10416C000E2341465118396349464B417B634FF04E
:10417C0000024FF00003D7E90CAB5946CB00514677
:10418C0043EA51735146CA0010461946034642464B
:10419C009B18C7F8B8304B460A4642EB0303C7F8E6
:1041AC00BC30D7F8F0300022C7F8B030C7F8B420D4
:1041BC00D7E92C120B46DB18BB62134642EB030308
:1041CC00FB62D7E90A23D7E92E01FCF74DFA024628
:1041DC000B460C4BA3FB02135B09642101FB03F39D
:1041EC00D31ADB003233074AA2FB03235B099BB2D1
:1041FC0003F007039BB223449BB21A46D7F8FC305A
:10420C009A6008E11F85EB51D7F8F8300022C7F807
:10421C00A830C7F8AC20D7E92A8942464B469118FA
:10422C0039625B417B62D7E9082341465418494601
:10423C0043EB01054FF000024FF00003EB0043EAA3
:10424C005473E20014461D464346E318C7F8A030E9
:10425C004B4645EB0303C7F8A430D7F8F0300022E7
:10426C00C7F89830C7F89C204FF000024FF00003BD
:10427C00D7E9264529468B00214643EA917321460E
:10428C008A00D7E92801FCF7EFF902460B46654B8B
:10429C00A3FB02235B099BB21B019CB2D7F8F8303D
:1042AC000022C7F89030C7F89420D7E924894246F9
:1042BC004B469118B9615B41FB61D7E90623414636
:1042CC005118396149464B417B614FF000024FF068
:1042DC000003D7E904AB5946CB00514643EA51736E
:1042EC005146CA0010461946034642469B18C7F869
:1042FC0088304B460A4642EB0303C7F88C30D7F89C
:10430C00F0300022C7F88030C7F884204FF000024C
:10431C004FF00003D7E9208949468B00414643EA18
:10432C00917341468A00D7E92201FCF79DF90246B8
:10433C000B4611463B4BA3FB01235B09642202FB9A
:10434C0003F3CB1A1B013233364AA2FB03235B095E
:10435C009BB203F0F0039BB223449CB2D7F8F83025
:10436C000022BB67FA67D7E91E8942464B46911873
:10437C00B9605B41FB60D7E90223414651183960B3
:10438C0049464B417B604FF000024FF00003D7E9E8
:10439C0000AB5946CB00514643EA51735146CA0013
:1043AC0010461946034642469B183B674B460A4645
:1043BC0042EB03037B67D7F8F0300022BB66FA664A
:1043CC004FF000024FF00003D7E91A8949468B00E1
:1043DC00414643EA917341468A00D7E91C01FCF738
:1043EC0043F902460B460F4BA3FB02135B096421F6
:1043FC0001FB03F3D31A1B0132330A4AA2FB03233A
:10440C005B099BB203F00F039BB223449BB21A4689
:10441C00D7F8FC309A6000BF07F58077BD46BDE841
:10442C00B08F00BF1F85EB5180B588B000AF7860AE
:10443C0039600123FB770023BB617868FFF78CFDA3
:10444C000346002B6CD17B68DB6823F4164323F006
:10445C000C033A6851683A68D26811433A68126999
:10446C0011433A6892690A431A437B68DA603B68E5
:10447C009B6819467868FFF783FD3B685B691946B2
:10448C007868FFF790FD07F108031846FEF7A2F9CC
:10449C007B68264A934202D17B69BB612FE07B6823
:1044AC00234A934202D13B69BB6128E07B68214AD5
:1044BC00934202D13B69BB6121E07B681E4A934267
:1044CC0002D17B69BB611AE07B681C4A934202D122
:1044DC003B69BB6113E07B68194A934202D13B698B
:1044EC00BB610CE07B68174A934202D13B69BB610C
:1044FC0005E07B68144A934201D13B69BB61BB69FF
:10450C00002B0DD03B681B68002B09D00023FB77D8
:10451C003B689A693B681B68B9697868FFF756FD78
:10452C00FB7F18462037BD4680BD00BF0010014000
:10453C00004400400048004000140140004C004082
:10454C000050004000780040007C004080B400AF78
:10455C00064BD3F88830054A43F47003C2F8883010
:10456C0000BFBD465DF8047B704700BF00ED00E066
:10457C00DFF834D00D480E490E4A002302E0D4581F
:10458C00C4500433C4188C42F9D30B4A0B4C00238F
:10459C0001E013600432A242FBD3FFF7D7FF00F017
:1045AC007DF9FCF747FA704700000320000000205B
:1045BC00340000203C49000838000020DC000020BA
:1045CC00FEE700002DE9F047089E0D4604460F4615
:1045DC00002B4AD18A42944665D9B2FA82F343B190
:1045EC0002FA03FCC3F120029F4020FA02F21743A7
:1045FC009C404FEA1C4E1FFA8CF5B7FBFEF1220CC7
:10460C000EFB117742EA074201FB05F090420AD9F2
:10461C001CEB020201F1FF3780F01C81904240F24A
:10462C00198102396244121AA4B2B2FBFEF00EFBDD
:10463C00102244EA024400FB05F5A5420AD91CEB02
:10464C00040400F1FF3280F00781A54240F204819E
:10465C006444023840EA0140641B00211EB1DC4076
:10466C000023C6E90043BDE8F0878B4208D9002E31
:10467C0000F0ED800021C6E900050846BDE8F08792
:10468C00B3FA83F1002949D1AB4202D3824200F242
:10469C00F880841A65EB030201201746002EE2D045
:1046AC00C6E90047DFE702B9FFDEB2FA82F3002B5E
:1046BC0040F090808A1A4FEA1C471FFA8CFE0121A9
:1046CC00B2FBF7F507FB1520220C42EA00420EFB69
:1046DC0005F0904208D91CEB020205F1FF3802D21A
:1046EC00904200F2CB804546121AA4B2B2FBF7F00E
:1046FC0007FB102244EA02440EFB00FEA64508D933
:10470C001CEB040400F1FF3202D2A64500F2BB8080
:10471C001046A4EB0E0440EA05409FE7C1F12007C8
:10472C008B4022FA07FC4CEA030C05FA01F420FA40
:10473C0007F3FD404FEA1C492343B5FBF9F81FFA78
:10474C008CFE09FB18551C0C44EA054408FB0EF5BD
:10475C00A54202FA01F200FA01F00BD91CEB040499
:10476C0008F1FF3A80F08880A54240F28580A8F1DC
:10477C0002086444641B9DB2B4FBF9F309FB1344B7
:10478C0045EA044403FB0EFEA64508D91CEB0404C1
:10479C0003F1FF356CD2A6456AD9023B644443EA67
:1047AC000843A3FB0295A4EB0E04AC42C846AE46EC
:1047BC0056D353D056B1B0EB080264EB0E0404FA96
:1047CC0007F7CA40CC401743C6E9007418460021CD
:1047DC00BDE8F087C3F1200102FA03FC20FA01F2D4
:1047EC0025FA01F19D402A434FEA1C471FFA8CFE23
:1047FC00B1FBF7F007FB1015110C41EA054100FB6A
:10480C000EF58D4204FA03F408D91CEB010100F1FA
:10481C00FF382FD28D422DD902386144491B92B2F8
:10482C00B1FBF7F507FB151142EA014205FB0EF14E
:10483C00914208D91CEB020205F1FF3816D29142C5
:10484C0014D9023D6244521A45EA004138E7314618
:10485C00304608E73946E6E61046FBE64845A9D25D
:10486C00B9EB020865EB0C0E013BA3E74546EAE702
:10487C002B4694E74046D1E7D0467BE7023D6244A5
:10488C0032E708460AE76444023842E7024403462A
:10489C00934200D1704703F8011BF9E770B50D4D39
:1048AC000D4C641BA4100026A64209D10B4D0C4CD8
:1048BC0000F018F8641BA4100026A64205D170BDA8
:1048CC0055F8043B98470136EEE755F8043B9847FA
:1048DC000136F2E73449000834490008344900082D
:1048EC0038490008F8B500BFF8BC08BC9E467047B4
:0C48FC00F8B500BFF8BC08BC9E46704731
:1049080078000020102840587088A0B800000000E7
:104918000000000001020304060708090000000067
:044928000102030481
:08492C00A4FCFF7F0100000064
:04493400110700085F
:04493800E906000884
:10493C00000000000000F0BF000000000000F03F8D
:10494C0000000000000024400000000000001440A3
:10495C00000000000000000010000000010000003A
:04496C000024F4002F
:040000050800457D2D
:00000001FF
